{
  "_format": "hh-sol-artifact-1",
  "contractName": "Block",
  "sourceName": "contracts/Block.sol",
  "abi": [
    {
      "inputs": [],
      "stateMutability": "nonpayable",
      "type": "constructor"
    },
    {
      "anonymous": false,
      "inputs": [
        {
          "indexed": true,
          "internalType": "address",
          "name": "owner",
          "type": "address"
        },
        {
          "indexed": true,
          "internalType": "address",
          "name": "approved",
          "type": "address"
        },
        {
          "indexed": true,
          "internalType": "uint256",
          "name": "tokenId",
          "type": "uint256"
        }
      ],
      "name": "Approval",
      "type": "event"
    },
    {
      "anonymous": false,
      "inputs": [
        {
          "indexed": true,
          "internalType": "address",
          "name": "owner",
          "type": "address"
        },
        {
          "indexed": true,
          "internalType": "address",
          "name": "operator",
          "type": "address"
        },
        {
          "indexed": false,
          "internalType": "bool",
          "name": "approved",
          "type": "bool"
        }
      ],
      "name": "ApprovalForAll",
      "type": "event"
    },
    {
      "anonymous": false,
      "inputs": [
        {
          "indexed": false,
          "internalType": "uint256",
          "name": "_fromTokenId",
          "type": "uint256"
        },
        {
          "indexed": false,
          "internalType": "uint256",
          "name": "_toTokenId",
          "type": "uint256"
        }
      ],
      "name": "BatchMetadataUpdate",
      "type": "event"
    },
    {
      "anonymous": false,
      "inputs": [
        {
          "indexed": false,
          "internalType": "uint256",
          "name": "_tokenId",
          "type": "uint256"
        }
      ],
      "name": "MetadataUpdate",
      "type": "event"
    },
    {
      "anonymous": false,
      "inputs": [
        {
          "indexed": true,
          "internalType": "address",
          "name": "previousOwner",
          "type": "address"
        },
        {
          "indexed": true,
          "internalType": "address",
          "name": "newOwner",
          "type": "address"
        }
      ],
      "name": "OwnershipTransferred",
      "type": "event"
    },
    {
      "anonymous": false,
      "inputs": [
        {
          "indexed": true,
          "internalType": "address",
          "name": "from",
          "type": "address"
        },
        {
          "indexed": true,
          "internalType": "address",
          "name": "to",
          "type": "address"
        },
        {
          "indexed": true,
          "internalType": "uint256",
          "name": "tokenId",
          "type": "uint256"
        }
      ],
      "name": "Transfer",
      "type": "event"
    },
    {
      "inputs": [
        {
          "internalType": "address",
          "name": "to",
          "type": "address"
        },
        {
          "internalType": "uint256",
          "name": "tokenId",
          "type": "uint256"
        }
      ],
      "name": "approve",
      "outputs": [],
      "stateMutability": "nonpayable",
      "type": "function"
    },
    {
      "inputs": [
        {
          "internalType": "address",
          "name": "owner",
          "type": "address"
        }
      ],
      "name": "balanceOf",
      "outputs": [
        {
          "internalType": "uint256",
          "name": "",
          "type": "uint256"
        }
      ],
      "stateMutability": "view",
      "type": "function"
    },
    {
      "inputs": [
        {
          "internalType": "uint256",
          "name": "tokenId",
          "type": "uint256"
        }
      ],
      "name": "getApproved",
      "outputs": [
        {
          "internalType": "address",
          "name": "",
          "type": "address"
        }
      ],
      "stateMutability": "view",
      "type": "function"
    },
    {
      "inputs": [
        {
          "internalType": "address",
          "name": "owner",
          "type": "address"
        },
        {
          "internalType": "address",
          "name": "operator",
          "type": "address"
        }
      ],
      "name": "isApprovedForAll",
      "outputs": [
        {
          "internalType": "bool",
          "name": "",
          "type": "bool"
        }
      ],
      "stateMutability": "view",
      "type": "function"
    },
    {
      "inputs": [
        {
          "internalType": "address",
          "name": "nftmarketplace",
          "type": "address"
        },
        {
          "internalType": "uint256",
          "name": "nftId",
          "type": "uint256"
        }
      ],
      "name": "myApprove",
      "outputs": [],
      "stateMutability": "nonpayable",
      "type": "function"
    },
    {
      "inputs": [
        {
          "internalType": "address",
          "name": "to",
          "type": "address"
        },
        {
          "internalType": "string",
          "name": "uri",
          "type": "string"
        }
      ],
      "name": "mySafeMint",
      "outputs": [],
      "stateMutability": "nonpayable",
      "type": "function"
    },
    {
      "inputs": [],
      "name": "name",
      "outputs": [
        {
          "internalType": "string",
          "name": "",
          "type": "string"
        }
      ],
      "stateMutability": "view",
      "type": "function"
    },
    {
      "inputs": [],
      "name": "owner",
      "outputs": [
        {
          "internalType": "address",
          "name": "",
          "type": "address"
        }
      ],
      "stateMutability": "view",
      "type": "function"
    },
    {
      "inputs": [
        {
          "internalType": "uint256",
          "name": "tokenId",
          "type": "uint256"
        }
      ],
      "name": "ownerOf",
      "outputs": [
        {
          "internalType": "address",
          "name": "",
          "type": "address"
        }
      ],
      "stateMutability": "view",
      "type": "function"
    },
    {
      "inputs": [],
      "name": "renounceOwnership",
      "outputs": [],
      "stateMutability": "nonpayable",
      "type": "function"
    },
    {
      "inputs": [
        {
          "internalType": "address",
          "name": "from",
          "type": "address"
        },
        {
          "internalType": "address",
          "name": "to",
          "type": "address"
        },
        {
          "internalType": "uint256",
          "name": "tokenId",
          "type": "uint256"
        }
      ],
      "name": "safeTransferFrom",
      "outputs": [],
      "stateMutability": "nonpayable",
      "type": "function"
    },
    {
      "inputs": [
        {
          "internalType": "address",
          "name": "from",
          "type": "address"
        },
        {
          "internalType": "address",
          "name": "to",
          "type": "address"
        },
        {
          "internalType": "uint256",
          "name": "tokenId",
          "type": "uint256"
        },
        {
          "internalType": "bytes",
          "name": "data",
          "type": "bytes"
        }
      ],
      "name": "safeTransferFrom",
      "outputs": [],
      "stateMutability": "nonpayable",
      "type": "function"
    },
    {
      "inputs": [
        {
          "internalType": "address",
          "name": "operator",
          "type": "address"
        },
        {
          "internalType": "bool",
          "name": "approved",
          "type": "bool"
        }
      ],
      "name": "setApprovalForAll",
      "outputs": [],
      "stateMutability": "nonpayable",
      "type": "function"
    },
    {
      "inputs": [
        {
          "internalType": "bytes4",
          "name": "interfaceId",
          "type": "bytes4"
        }
      ],
      "name": "supportsInterface",
      "outputs": [
        {
          "internalType": "bool",
          "name": "",
          "type": "bool"
        }
      ],
      "stateMutability": "view",
      "type": "function"
    },
    {
      "inputs": [],
      "name": "symbol",
      "outputs": [
        {
          "internalType": "string",
          "name": "",
          "type": "string"
        }
      ],
      "stateMutability": "view",
      "type": "function"
    },
    {
      "inputs": [
        {
          "internalType": "uint256",
          "name": "tokenId",
          "type": "uint256"
        }
      ],
      "name": "tokenURI",
      "outputs": [
        {
          "internalType": "string",
          "name": "",
          "type": "string"
        }
      ],
      "stateMutability": "view",
      "type": "function"
    },
    {
      "inputs": [
        {
          "internalType": "address",
          "name": "from",
          "type": "address"
        },
        {
          "internalType": "address",
          "name": "to",
          "type": "address"
        },
        {
          "internalType": "uint256",
          "name": "tokenId",
          "type": "uint256"
        }
      ],
      "name": "transferFrom",
      "outputs": [],
      "stateMutability": "nonpayable",
      "type": "function"
    },
    {
      "inputs": [
        {
          "internalType": "address",
          "name": "newOwner",
          "type": "address"
        }
      ],
      "name": "transferOwnership",
      "outputs": [],
      "stateMutability": "nonpayable",
      "type": "function"
    }
  ],
  "bytecode": "0x60806040523480156200001157600080fd5b506040518060400160405280600581526020017f426c6f636b0000000000000000000000000000000000000000000000000000008152506040518060400160405280600381526020017f424c430000000000000000000000000000000000000000000000000000000000815250816000908051906020019062000096929190620001a6565b508060019080519060200190620000af929190620001a6565b505050620000d2620000c6620000d860201b60201c565b620000e060201b60201c565b620002bb565b600033905090565b6000600760009054906101000a900473ffffffffffffffffffffffffffffffffffffffff16905081600760006101000a81548173ffffffffffffffffffffffffffffffffffffffff021916908373ffffffffffffffffffffffffffffffffffffffff1602179055508173ffffffffffffffffffffffffffffffffffffffff168173ffffffffffffffffffffffffffffffffffffffff167f8be0079c531659141344cd1fd0a4f28419497f9722a3daafe3b4186f6b6457e060405160405180910390a35050565b828054620001b49062000256565b90600052602060002090601f016020900481019282620001d8576000855562000224565b82601f10620001f357805160ff191683800117855562000224565b8280016001018555821562000224579182015b828111156200022357825182559160200191906001019062000206565b5b50905062000233919062000237565b5090565b5b808211156200025257600081600090555060010162000238565b5090565b600060028204905060018216806200026f57607f821691505b602082108114156200028657620002856200028c565b5b50919050565b7f4e487b7100000000000000000000000000000000000000000000000000000000600052602260045260246000fd5b612dfa80620002cb6000396000f3fe608060405234801561001057600080fd5b50600436106101165760003560e01c8063715018a6116100a2578063a22cb46511610071578063a22cb465146102cb578063b88d4fde146102e7578063c87b56dd14610303578063e985e9c514610333578063f2fde38b1461036357610116565b8063715018a6146102695780637d09a63b146102735780638da5cb5b1461028f57806395d89b41146102ad57610116565b806323b872dd116100e957806323b872dd146101b557806342842e0e146101d15780635970943d146101ed5780636352211e1461020957806370a082311461023957610116565b806301ffc9a71461011b57806306fdde031461014b578063081812fc14610169578063095ea7b314610199575b600080fd5b610135600480360381019061013091906121aa565b61037f565b604051610142919061256a565b60405180910390f35b6101536103e0565b6040516101609190612585565b60405180910390f35b610183600480360381019061017e91906121fc565b610472565b6040516101909190612503565b60405180910390f35b6101b360048036038101906101ae919061216e565b6104b8565b005b6101cf60048036038101906101ca9190612014565b6105d0565b005b6101eb60048036038101906101e69190612014565b610630565b005b6102076004803603810190610202919061211a565b610650565b005b610223600480360381019061021e91906121fc565b610689565b6040516102309190612503565b60405180910390f35b610253600480360381019061024e9190611faf565b610710565b6040516102609190612767565b60405180910390f35b6102716107c8565b005b61028d6004803603810190610288919061216e565b6107dc565b005b6102976107ea565b6040516102a49190612503565b60405180910390f35b6102b5610814565b6040516102c29190612585565b60405180910390f35b6102e560048036038101906102e091906120de565b6108a6565b005b61030160048036038101906102fc9190612063565b6108bc565b005b61031d600480360381019061031891906121fc565b61091e565b60405161032a9190612585565b60405180910390f35b61034d60048036038101906103489190611fd8565b610930565b60405161035a919061256a565b60405180910390f35b61037d60048036038101906103789190611faf565b6109c4565b005b6000634906490660e01b7bffffffffffffffffffffffffffffffffffffffffffffffffffffffff1916827bffffffffffffffffffffffffffffffffffffffffffffffffffffffff191614806103d957506103d882610a48565b5b9050919050565b6060600080546103ef90612902565b80601f016020809104026020016040519081016040528092919081815260200182805461041b90612902565b80156104685780601f1061043d57610100808354040283529160200191610468565b820191906000526020600020905b81548152906001019060200180831161044b57829003601f168201915b5050505050905090565b600061047d82610b2a565b6004600083815260200190815260200160002060009054906101000a900473ffffffffffffffffffffffffffffffffffffffff169050919050565b60006104c382610689565b90508073ffffffffffffffffffffffffffffffffffffffff168373ffffffffffffffffffffffffffffffffffffffff161415610534576040517f08c379a000000000000000000000000000000000000000000000000000000000815260040161052b90612727565b60405180910390fd5b8073ffffffffffffffffffffffffffffffffffffffff16610553610b75565b73ffffffffffffffffffffffffffffffffffffffff16148061058257506105818161057c610b75565b610930565b5b6105c1576040517f08c379a00000000000000000000000000000000000000000000000000000000081526004016105b890612747565b60405180910390fd5b6105cb8383610b7d565b505050565b6105e16105db610b75565b82610c36565b610620576040517f08c379a0000000000000000000000000000000000000000000000000000000008152600401610617906125a7565b60405180910390fd5b61062b838383610ccb565b505050565b61064b838383604051806020016040528060008152506108bc565b505050565b610658610fc5565b60006106646008611043565b90506106706008611051565b61067a8382611067565b6106848183611085565b505050565b60008061069583611130565b9050600073ffffffffffffffffffffffffffffffffffffffff168173ffffffffffffffffffffffffffffffffffffffff161415610707576040517f08c379a00000000000000000000000000000000000000000000000000000000081526004016106fe90612707565b60405180910390fd5b80915050919050565b60008073ffffffffffffffffffffffffffffffffffffffff168273ffffffffffffffffffffffffffffffffffffffff161415610781576040517f08c379a000000000000000000000000000000000000000000000000000000000815260040161077890612687565b60405180910390fd5b600360008373ffffffffffffffffffffffffffffffffffffffff1673ffffffffffffffffffffffffffffffffffffffff168152602001908152602001600020549050919050565b6107d0610fc5565b6107da600061116d565b565b6107e682826104b8565b5050565b6000600760009054906101000a900473ffffffffffffffffffffffffffffffffffffffff16905090565b60606001805461082390612902565b80601f016020809104026020016040519081016040528092919081815260200182805461084f90612902565b801561089c5780601f106108715761010080835404028352916020019161089c565b820191906000526020600020905b81548152906001019060200180831161087f57829003601f168201915b5050505050905090565b6108b86108b1610b75565b8383611233565b5050565b6108cd6108c7610b75565b83610c36565b61090c576040517f08c379a0000000000000000000000000000000000000000000000000000000008152600401610903906125a7565b60405180910390fd5b610918848484846113a0565b50505050565b6060610929826113fc565b9050919050565b6000600560008473ffffffffffffffffffffffffffffffffffffffff1673ffffffffffffffffffffffffffffffffffffffff16815260200190815260200160002060008373ffffffffffffffffffffffffffffffffffffffff1673ffffffffffffffffffffffffffffffffffffffff16815260200190815260200160002060009054906101000a900460ff16905092915050565b6109cc610fc5565b600073ffffffffffffffffffffffffffffffffffffffff168173ffffffffffffffffffffffffffffffffffffffff161415610a3c576040517f08c379a0000000000000000000000000000000000000000000000000000000008152600401610a33906125e7565b60405180910390fd5b610a458161116d565b50565b60007f80ac58cd000000000000000000000000000000000000000000000000000000007bffffffffffffffffffffffffffffffffffffffffffffffffffffffff1916827bffffffffffffffffffffffffffffffffffffffffffffffffffffffff19161480610b1357507f5b5e139f000000000000000000000000000000000000000000000000000000007bffffffffffffffffffffffffffffffffffffffffffffffffffffffff1916827bffffffffffffffffffffffffffffffffffffffffffffffffffffffff1916145b80610b235750610b228261150f565b5b9050919050565b610b3381611579565b610b72576040517f08c379a0000000000000000000000000000000000000000000000000000000008152600401610b6990612707565b60405180910390fd5b50565b600033905090565b816004600083815260200190815260200160002060006101000a81548173ffffffffffffffffffffffffffffffffffffffff021916908373ffffffffffffffffffffffffffffffffffffffff160217905550808273ffffffffffffffffffffffffffffffffffffffff16610bf083610689565b73ffffffffffffffffffffffffffffffffffffffff167f8c5be1e5ebec7d5bd14f71427d1e84f3dd0314c0f7b2291e5b200ac8c7c3b92560405160405180910390a45050565b600080610c4283610689565b90508073ffffffffffffffffffffffffffffffffffffffff168473ffffffffffffffffffffffffffffffffffffffff161480610c845750610c838185610930565b5b80610cc257508373ffffffffffffffffffffffffffffffffffffffff16610caa84610472565b73ffffffffffffffffffffffffffffffffffffffff16145b91505092915050565b8273ffffffffffffffffffffffffffffffffffffffff16610ceb82610689565b73ffffffffffffffffffffffffffffffffffffffff1614610d41576040517f08c379a0000000000000000000000000000000000000000000000000000000008152600401610d3890612607565b60405180910390fd5b600073ffffffffffffffffffffffffffffffffffffffff168273ffffffffffffffffffffffffffffffffffffffff161415610db1576040517f08c379a0000000000000000000000000000000000000000000000000000000008152600401610da890612647565b60405180910390fd5b610dbe83838360016115ba565b8273ffffffffffffffffffffffffffffffffffffffff16610dde82610689565b73ffffffffffffffffffffffffffffffffffffffff1614610e34576040517f08c379a0000000000000000000000000000000000000000000000000000000008152600401610e2b90612607565b60405180910390fd5b6004600082815260200190815260200160002060006101000a81549073ffffffffffffffffffffffffffffffffffffffff02191690556001600360008573ffffffffffffffffffffffffffffffffffffffff1673ffffffffffffffffffffffffffffffffffffffff168152602001908152602001600020600082825403925050819055506001600360008473ffffffffffffffffffffffffffffffffffffffff1673ffffffffffffffffffffffffffffffffffffffff16815260200190815260200160002060008282540192505081905550816002600083815260200190815260200160002060006101000a81548173ffffffffffffffffffffffffffffffffffffffff021916908373ffffffffffffffffffffffffffffffffffffffff160217905550808273ffffffffffffffffffffffffffffffffffffffff168473ffffffffffffffffffffffffffffffffffffffff167fddf252ad1be2c89b69c2b068fc378daa952ba7f163c4a11628f55a4df523b3ef60405160405180910390a4610fc083838360016115c0565b505050565b610fcd610b75565b73ffffffffffffffffffffffffffffffffffffffff16610feb6107ea565b73ffffffffffffffffffffffffffffffffffffffff1614611041576040517f08c379a0000000000000000000000000000000000000000000000000000000008152600401611038906126e7565b60405180910390fd5b565b600081600001549050919050565b6001816000016000828254019250508190555050565b6110818282604051806020016040528060008152506115c6565b5050565b61108e82611579565b6110cd576040517f08c379a00000000000000000000000000000000000000000000000000000000081526004016110c4906126a7565b60405180910390fd5b806006600084815260200190815260200160002090805190602001906110f4929190611dd3565b507ff8e1a15aba9398e019f0b49df1a4fde98ee17ae345cb5f6b5e2c27f5033e8ce7826040516111249190612767565b60405180910390a15050565b60006002600083815260200190815260200160002060009054906101000a900473ffffffffffffffffffffffffffffffffffffffff169050919050565b6000600760009054906101000a900473ffffffffffffffffffffffffffffffffffffffff16905081600760006101000a81548173ffffffffffffffffffffffffffffffffffffffff021916908373ffffffffffffffffffffffffffffffffffffffff1602179055508173ffffffffffffffffffffffffffffffffffffffff168173ffffffffffffffffffffffffffffffffffffffff167f8be0079c531659141344cd1fd0a4f28419497f9722a3daafe3b4186f6b6457e060405160405180910390a35050565b8173ffffffffffffffffffffffffffffffffffffffff168373ffffffffffffffffffffffffffffffffffffffff1614156112a2576040517f08c379a000000000000000000000000000000000000000000000000000000000815260040161129990612667565b60405180910390fd5b80600560008573ffffffffffffffffffffffffffffffffffffffff1673ffffffffffffffffffffffffffffffffffffffff16815260200190815260200160002060008473ffffffffffffffffffffffffffffffffffffffff1673ffffffffffffffffffffffffffffffffffffffff16815260200190815260200160002060006101000a81548160ff0219169083151502179055508173ffffffffffffffffffffffffffffffffffffffff168373ffffffffffffffffffffffffffffffffffffffff167f17307eab39ab6107e8899845ad3d59bd9653f200f220920489ca2b5937696c3183604051611393919061256a565b60405180910390a3505050565b6113ab848484610ccb565b6113b784848484611621565b6113f6576040517f08c379a00000000000000000000000000000000000000000000000000000000081526004016113ed906125c7565b60405180910390fd5b50505050565b606061140782610b2a565b600060066000848152602001908152602001600020805461142790612902565b80601f016020809104026020016040519081016040528092919081815260200182805461145390612902565b80156114a05780601f10611475576101008083540402835291602001916114a0565b820191906000526020600020905b81548152906001019060200180831161148357829003601f168201915b5050505050905060006114b16117b8565b90506000815114156114c757819250505061150a565b6000825111156114fc5780826040516020016114e49291906124df565b6040516020818303038152906040529250505061150a565b611505846117cf565b925050505b919050565b60007f01ffc9a7000000000000000000000000000000000000000000000000000000007bffffffffffffffffffffffffffffffffffffffffffffffffffffffff1916827bffffffffffffffffffffffffffffffffffffffffffffffffffffffff1916149050919050565b60008073ffffffffffffffffffffffffffffffffffffffff1661159b83611130565b73ffffffffffffffffffffffffffffffffffffffff1614159050919050565b50505050565b50505050565b6115d08383611837565b6115dd6000848484611621565b61161c576040517f08c379a0000000000000000000000000000000000000000000000000000000008152600401611613906125c7565b60405180910390fd5b505050565b60006116428473ffffffffffffffffffffffffffffffffffffffff16611a55565b156117ab578373ffffffffffffffffffffffffffffffffffffffff1663150b7a0261166b610b75565b8786866040518563ffffffff1660e01b815260040161168d949392919061251e565b602060405180830381600087803b1580156116a757600080fd5b505af19250505080156116d857506040513d601f19601f820116820180604052508101906116d591906121d3565b60015b61175b573d8060008114611708576040519150601f19603f3d011682016040523d82523d6000602084013e61170d565b606091505b50600081511415611753576040517f08c379a000000000000000000000000000000000000000000000000000000000815260040161174a906125c7565b60405180910390fd5b805181602001fd5b63150b7a0260e01b7bffffffffffffffffffffffffffffffffffffffffffffffffffffffff1916817bffffffffffffffffffffffffffffffffffffffffffffffffffffffff1916149150506117b0565b600190505b949350505050565b606060405180602001604052806000815250905090565b60606117da82610b2a565b60006117e46117b8565b90506000815111611804576040518060200160405280600081525061182f565b8061180e84611a78565b60405160200161181f9291906124df565b6040516020818303038152906040525b915050919050565b600073ffffffffffffffffffffffffffffffffffffffff168273ffffffffffffffffffffffffffffffffffffffff1614156118a7576040517f08c379a000000000000000000000000000000000000000000000000000000000815260040161189e906126c7565b60405180910390fd5b6118b081611579565b156118f0576040517f08c379a00000000000000000000000000000000000000000000000000000000081526004016118e790612627565b60405180910390fd5b6118fe6000838360016115ba565b61190781611579565b15611947576040517f08c379a000000000000000000000000000000000000000000000000000000000815260040161193e90612627565b60405180910390fd5b6001600360008473ffffffffffffffffffffffffffffffffffffffff1673ffffffffffffffffffffffffffffffffffffffff16815260200190815260200160002060008282540192505081905550816002600083815260200190815260200160002060006101000a81548173ffffffffffffffffffffffffffffffffffffffff021916908373ffffffffffffffffffffffffffffffffffffffff160217905550808273ffffffffffffffffffffffffffffffffffffffff16600073ffffffffffffffffffffffffffffffffffffffff167fddf252ad1be2c89b69c2b068fc378daa952ba7f163c4a11628f55a4df523b3ef60405160405180910390a4611a516000838360016115c0565b5050565b6000808273ffffffffffffffffffffffffffffffffffffffff163b119050919050565b606060006001611a8784611b9c565b01905060008167ffffffffffffffff811115611acc577f4e487b7100000000000000000000000000000000000000000000000000000000600052604160045260246000fd5b6040519080825280601f01601f191660200182016040528015611afe5781602001600182028036833780820191505090505b509050600082602001820190505b600115611b91578080600190039150507f3031323334353637383961626364656600000000000000000000000000000000600a86061a8153600a8581611b7b577f4e487b7100000000000000000000000000000000000000000000000000000000600052601260045260246000fd5b0494506000851415611b8c57611b91565b611b0c565b819350505050919050565b600080600090507a184f03e93ff9f4daa797ed6e38ed64bf6a1f0100000000000000008310611c20577a184f03e93ff9f4daa797ed6e38ed64bf6a1f0100000000000000008381611c16577f4e487b7100000000000000000000000000000000000000000000000000000000600052601260045260246000fd5b0492506040810190505b6d04ee2d6d415b85acef81000000008310611c83576d04ee2d6d415b85acef81000000008381611c79577f4e487b7100000000000000000000000000000000000000000000000000000000600052601260045260246000fd5b0492506020810190505b662386f26fc100008310611cd857662386f26fc100008381611cce577f4e487b7100000000000000000000000000000000000000000000000000000000600052601260045260246000fd5b0492506010810190505b6305f5e1008310611d27576305f5e1008381611d1d577f4e487b7100000000000000000000000000000000000000000000000000000000600052601260045260246000fd5b0492506008810190505b6127108310611d72576127108381611d68577f4e487b7100000000000000000000000000000000000000000000000000000000600052601260045260246000fd5b0492506004810190505b60648310611dbb5760648381611db1577f4e487b7100000000000000000000000000000000000000000000000000000000600052601260045260246000fd5b0492506002810190505b600a8310611dca576001810190505b80915050919050565b828054611ddf90612902565b90600052602060002090601f016020900481019282611e015760008555611e48565b82601f10611e1a57805160ff1916838001178555611e48565b82800160010185558215611e48579182015b82811115611e47578251825591602001919060010190611e2c565b5b509050611e559190611e59565b5090565b5b80821115611e72576000816000905550600101611e5a565b5090565b6000611e89611e84846127a7565b612782565b905082815260208101848484011115611ea157600080fd5b611eac8482856128c0565b509392505050565b6000611ec7611ec2846127d8565b612782565b905082815260208101848484011115611edf57600080fd5b611eea8482856128c0565b509392505050565b600081359050611f0181612d68565b92915050565b600081359050611f1681612d7f565b92915050565b600081359050611f2b81612d96565b92915050565b600081519050611f4081612d96565b92915050565b600082601f830112611f5757600080fd5b8135611f67848260208601611e76565b91505092915050565b600082601f830112611f8157600080fd5b8135611f91848260208601611eb4565b91505092915050565b600081359050611fa981612dad565b92915050565b600060208284031215611fc157600080fd5b6000611fcf84828501611ef2565b91505092915050565b60008060408385031215611feb57600080fd5b6000611ff985828601611ef2565b925050602061200a85828601611ef2565b9150509250929050565b60008060006060848603121561202957600080fd5b600061203786828701611ef2565b935050602061204886828701611ef2565b925050604061205986828701611f9a565b9150509250925092565b6000806000806080858703121561207957600080fd5b600061208787828801611ef2565b945050602061209887828801611ef2565b93505060406120a987828801611f9a565b925050606085013567ffffffffffffffff8111156120c657600080fd5b6120d287828801611f46565b91505092959194509250565b600080604083850312156120f157600080fd5b60006120ff85828601611ef2565b925050602061211085828601611f07565b9150509250929050565b6000806040838503121561212d57600080fd5b600061213b85828601611ef2565b925050602083013567ffffffffffffffff81111561215857600080fd5b61216485828601611f70565b9150509250929050565b6000806040838503121561218157600080fd5b600061218f85828601611ef2565b92505060206121a085828601611f9a565b9150509250929050565b6000602082840312156121bc57600080fd5b60006121ca84828501611f1c565b91505092915050565b6000602082840312156121e557600080fd5b60006121f384828501611f31565b91505092915050565b60006020828403121561220e57600080fd5b600061221c84828501611f9a565b91505092915050565b61222e8161284c565b82525050565b61223d8161285e565b82525050565b600061224e82612809565b612258818561281f565b93506122688185602086016128cf565b612271816129c3565b840191505092915050565b600061228782612814565b6122918185612830565b93506122a18185602086016128cf565b6122aa816129c3565b840191505092915050565b60006122c082612814565b6122ca8185612841565b93506122da8185602086016128cf565b80840191505092915050565b60006122f3602d83612830565b91506122fe826129d4565b604082019050919050565b6000612316603283612830565b915061232182612a23565b604082019050919050565b6000612339602683612830565b915061234482612a72565b604082019050919050565b600061235c602583612830565b915061236782612ac1565b604082019050919050565b600061237f601c83612830565b915061238a82612b10565b602082019050919050565b60006123a2602483612830565b91506123ad82612b39565b604082019050919050565b60006123c5601983612830565b91506123d082612b88565b602082019050919050565b60006123e8602983612830565b91506123f382612bb1565b604082019050919050565b600061240b602e83612830565b915061241682612c00565b604082019050919050565b600061242e602083612830565b915061243982612c4f565b602082019050919050565b6000612451602083612830565b915061245c82612c78565b602082019050919050565b6000612474601883612830565b915061247f82612ca1565b602082019050919050565b6000612497602183612830565b91506124a282612cca565b604082019050919050565b60006124ba603d83612830565b91506124c582612d19565b604082019050919050565b6124d9816128b6565b82525050565b60006124eb82856122b5565b91506124f782846122b5565b91508190509392505050565b60006020820190506125186000830184612225565b92915050565b60006080820190506125336000830187612225565b6125406020830186612225565b61254d60408301856124d0565b818103606083015261255f8184612243565b905095945050505050565b600060208201905061257f6000830184612234565b92915050565b6000602082019050818103600083015261259f818461227c565b905092915050565b600060208201905081810360008301526125c0816122e6565b9050919050565b600060208201905081810360008301526125e081612309565b9050919050565b600060208201905081810360008301526126008161232c565b9050919050565b600060208201905081810360008301526126208161234f565b9050919050565b6000602082019050818103600083015261264081612372565b9050919050565b6000602082019050818103600083015261266081612395565b9050919050565b60006020820190508181036000830152612680816123b8565b9050919050565b600060208201905081810360008301526126a0816123db565b9050919050565b600060208201905081810360008301526126c0816123fe565b9050919050565b600060208201905081810360008301526126e081612421565b9050919050565b6000602082019050818103600083015261270081612444565b9050919050565b6000602082019050818103600083015261272081612467565b9050919050565b600060208201905081810360008301526127408161248a565b9050919050565b60006020820190508181036000830152612760816124ad565b9050919050565b600060208201905061277c60008301846124d0565b92915050565b600061278c61279d565b90506127988282612934565b919050565b6000604051905090565b600067ffffffffffffffff8211156127c2576127c1612994565b5b6127cb826129c3565b9050602081019050919050565b600067ffffffffffffffff8211156127f3576127f2612994565b5b6127fc826129c3565b9050602081019050919050565b600081519050919050565b600081519050919050565b600082825260208201905092915050565b600082825260208201905092915050565b600081905092915050565b600061285782612896565b9050919050565b60008115159050919050565b60007fffffffff0000000000000000000000000000000000000000000000000000000082169050919050565b600073ffffffffffffffffffffffffffffffffffffffff82169050919050565b6000819050919050565b82818337600083830152505050565b60005b838110156128ed5780820151818401526020810190506128d2565b838111156128fc576000848401525b50505050565b6000600282049050600182168061291a57607f821691505b6020821081141561292e5761292d612965565b5b50919050565b61293d826129c3565b810181811067ffffffffffffffff8211171561295c5761295b612994565b5b80604052505050565b7f4e487b7100000000000000000000000000000000000000000000000000000000600052602260045260246000fd5b7f4e487b7100000000000000000000000000000000000000000000000000000000600052604160045260246000fd5b6000601f19601f8301169050919050565b7f4552433732313a2063616c6c6572206973206e6f7420746f6b656e206f776e6560008201527f72206f7220617070726f76656400000000000000000000000000000000000000602082015250565b7f4552433732313a207472616e7366657220746f206e6f6e20455243373231526560008201527f63656976657220696d706c656d656e7465720000000000000000000000000000602082015250565b7f4f776e61626c653a206e6577206f776e657220697320746865207a65726f206160008201527f6464726573730000000000000000000000000000000000000000000000000000602082015250565b7f4552433732313a207472616e736665722066726f6d20696e636f72726563742060008201527f6f776e6572000000000000000000000000000000000000000000000000000000602082015250565b7f4552433732313a20746f6b656e20616c7265616479206d696e74656400000000600082015250565b7f4552433732313a207472616e7366657220746f20746865207a65726f2061646460008201527f7265737300000000000000000000000000000000000000000000000000000000602082015250565b7f4552433732313a20617070726f766520746f2063616c6c657200000000000000600082015250565b7f4552433732313a2061646472657373207a65726f206973206e6f74206120766160008201527f6c6964206f776e65720000000000000000000000000000000000000000000000602082015250565b7f45524337323155524953746f726167653a2055524920736574206f66206e6f6e60008201527f6578697374656e7420746f6b656e000000000000000000000000000000000000602082015250565b7f4552433732313a206d696e7420746f20746865207a65726f2061646472657373600082015250565b7f4f776e61626c653a2063616c6c6572206973206e6f7420746865206f776e6572600082015250565b7f4552433732313a20696e76616c696420746f6b656e2049440000000000000000600082015250565b7f4552433732313a20617070726f76616c20746f2063757272656e74206f776e6560008201527f7200000000000000000000000000000000000000000000000000000000000000602082015250565b7f4552433732313a20617070726f76652063616c6c6572206973206e6f7420746f60008201527f6b656e206f776e6572206f7220617070726f76656420666f7220616c6c000000602082015250565b612d718161284c565b8114612d7c57600080fd5b50565b612d888161285e565b8114612d9357600080fd5b50565b612d9f8161286a565b8114612daa57600080fd5b50565b612db6816128b6565b8114612dc157600080fd5b5056fea2646970667358221220c84b57009f1a5f10dc9915f55844af36ce88b54e80ffbfee2a91cc9a6036f03564736f6c63430008010033",
  "linkReferences": {},
  "deployedLinkReferences": {}
}